:100000000C9466000C9470000C9470000C947000BA
:100010000C9470000C9470000C9470000C947000A0
:100020000C9470000C9470000C9470000C94700090
:100030000C9470000C9470000C9470000C94700080
:100040000C9470000C9470000C9470000C94700070
:100050000C9470000C9470000C9470000C94700060
:100060000C9470000C9470000C9470000C94700050
:100070000C9470000C9470000C9470000C94700040
:100080000C9470000C9470000C9470000C94700030
:100090000C9470000C9470000C9470000C94700020
:1000A0000C9470000C9470000C9470000C94700010
:1000B0000C9470000C9470000C9470000C94700000
:1000C0000C9470000C9470000C94700011241FBEEE
:1000D000CFEFD8E0DEBFCDBF0E9472000C945A0271
:1000E0000C940000CF93DF93CDB7DEB761970FB6C6
:1000F000F894DEBF0FBECDBF8AE290E02FEFFC0187
:10010000208381E290E0FC01108282E290E02FEFF8
:10011000FC0120831A8219821B828BE290E02FEF70
:10012000FC01208380E290E0FC018081882F90E038
:1001300081709927892B19F489818F5F898380E2E7
:1001400090E0FC018081882F90E082709927892BB4
:1001500019F489818E5F898380E290E0FC018081BF
:10016000882F90E084709927892B19F489818C5FFE
:10017000898380E290E0FC018081882F90E0887084
:100180009927892B19F48981885F89838BE290E014
:100190002A812095FC01208380E090E0AAE7B4E466
:1001A0008C839D83AE83BF8320E030E04AE755E433
:1001B0006C817D818E819F810E94C501DC01CB0114
:1001C00088879987AA87BB8720E030E040E85FE313
:1001D000688579858A859B850E943F0188232CF458
:1001E00081E090E09D878C873FC020E03FEF4FE7A4
:1001F00057E4688579858A859B850E94C001181619
:100200004CF520E030E040E251E46C817D818E814C
:100210009F810E94C501DC01CB01BC01CD010E9480
:100220004401DC01CB019D878C870FC080E991E000
:100230009F878E878E859F850197F1F79F878E8791
:100240008C859D8501979D878C878C859D85892BC5
:1002500069F714C0688579858A859B850E94440169
:10026000DC01CB019D878C878C859D85998B888B44
:10027000888999890197F1F7998B888B4ECF0E94D5
:10028000730108F481E008950E949F0188F09F5750
:1002900098F0B92F9927B751B0F0E1F0660F771FAA
:1002A000881F991F1AF0BA95C9F714C0B13091F0A0
:1002B0000E94B901B1E008950C94B901672F782F1D
:1002C0008827B85F39F0B93FCCF386957795679565
:1002D000B395D9F73EF490958095709561957F4FD1
:1002E0008F4F9F4F0895990F0008550FAA0BE0E814
:1002F000FEEF16161706E807F907C0F012161306E8
:10030000E407F50798F0621B730B840B950B39F427
:100310000A2661F0232B242B252B21F408950A268D
:1003200009F4A140A6958FEF811D811D089557FD09
:100330009058440F551F59F05F3F71F04795880F53
:1003400097FB991F61F09F3F79F0879508951216EA
:1003500013061406551FF2CF4695F1DF08C0161696
:1003600017061806991FF1CF869571056105089447
:100370000895E894BB2766277727CB0197F908955E
:100380000E94730108F48FEF08950E94D8010C9425
:1003900049020E943B0238F00E94420220F095235D
:1003A00011F00C9432020C94380211240C94BA010E
:1003B0000E94970170F3959FC1F3950F50E0551F70
:1003C000629FF001729FBB27F00DB11D639FAA27AA
:1003D000F00DB11DAA1F649F6627B00DA11D661FF9
:1003E000829F2227B00DA11D621F739FB00DA11D1A
:1003F000621F839FA00D611D221F749F3327A00DD4
:10040000611D231F849F600D211D822F762F6A2F6F
:1004100011249F5750409AF0F1F088234AF0EE0FD4
:10042000FF1FBB1F661F771F881F91505040A9F701
:100430009E3F510580F00C9432020C94BA015F3F4C
:10044000E4F3983ED4F3869577956795B795F7953D
:10045000E7959F5FC1F7FE2B880F911D96958795B5
:1004600097F9089597F99F6780E870E060E0089534
:100470009FEF80EC089500240A94161617061806BC
:100480000906089500240A94121613061406050698
:100490000895092E0394000C11F4882352F0BB0F29
:1004A00040F4BF2B11F460FF04C06F5F7F4F8F4F8C
:0804B0009F4F0895F894FFCF5F
:00000001FF
