S00C00006C6162342E73726563B5
S11300000C9466000C9470000C9470000C947000B6
S11300100C9470000C9470000C9470000C9470009C
S11300200C9470000C9470000C9470000C9470008C
S11300300C9470000C9470000C9470000C9470007C
S11300400C9470000C9470000C9470000C9470006C
S11300500C9470000C9470000C9470000C9470005C
S11300600C9470000C9470000C9470000C9470004C
S11300700C9470000C9470000C9470000C9470003C
S11300800C9470000C9470000C9470000C9470002C
S11300900C9470000C9470000C9470000C9470001C
S11300A00C9470000C9470000C9470000C9470000C
S11300B00C9470000C9470000C9470000C947000FC
S11300C00C9470000C9470000C94700011241FBEEA
S11300D0CFEFD8E0DEBFCDBF0E94F1000C94240125
S11300E00C940000729A73988BB92FEF81EE94E010
S11300F0215080409040E1F700C00000749A2FEF37
S113010081EE94E0215080409040E1F700C000006F
S113011074982FEF81EE94E0215080409040E1F7F5
S113012000C000000895729873988BB92FEF81EE88
S113013094E0215080409040E1F700C00000749AA0
S11301402FEF81EE94E0215080409040E1F700C011
S1130150000074982FEF81EE94E02150804090408D
S1130160E1F700C00000089581E00E949300089523
S113017082E00E94930008958FEF8AB91BB88DB175
S11301808C618DB98EB1837E8EB908952FE788E393
S113019091E0215080409040E1F700C0000080E3EE
S11301A00E9493008FE39CE90197F1F700C00000DF
S11301B080E30E9493008FE19EE40197F1F700C071
S11301C0000080E30E94930088E30E9493008FE084
S11301D00E94930081E00E94930086E00E949300B5
S11301E008950E94BC000E94C60081E40E9472002F
S11301F08EE60E94720084E70E94720088E60E94E4
S113020072008FE60E9472008EE60E94720089E7F7
S11302100E94720080EC0E94930082E50E947200AA
S11302208FE60E94720082E60E9472008CE60E94B1
S1130230720085E60E94720083E70E9472000E94A9
S10F0240B4000E94B800D1CFF894FFCFA6
S9030000FC
